{
  "contractName": "SupplyChain",
  "abi": [
    {
      "inputs": [],
      "payable": false,
      "stateMutability": "nonpayable",
      "type": "constructor",
      "signature": "constructor"
    },
    {
      "anonymous": false,
      "inputs": [
        {
          "indexed": false,
          "name": "sku",
          "type": "uint256"
        }
      ],
      "name": "ForSale",
      "type": "event",
      "signature": "0xa96ae0fc3224ebd79eebfe54bd130cc9cb94416cddd1f2386115e00b72532468"
    },
    {
      "anonymous": false,
      "inputs": [
        {
          "indexed": false,
          "name": "sku",
          "type": "uint256"
        }
      ],
      "name": "Sold",
      "type": "event",
      "signature": "0x92f64ca637d023f354075a4be751b169c1a8a9ccb6d33cdd0cb3520543995727"
    },
    {
      "anonymous": false,
      "inputs": [
        {
          "indexed": false,
          "name": "sku",
          "type": "uint256"
        }
      ],
      "name": "Shipped",
      "type": "event",
      "signature": "0xf00b9a5725b80c54016f42114f6ed7792d22eecb116011c4afac29c57bef6c95"
    },
    {
      "anonymous": false,
      "inputs": [
        {
          "indexed": false,
          "name": "sku",
          "type": "uint256"
        }
      ],
      "name": "Received",
      "type": "event",
      "signature": "0xa8142743f8f70a4c26f3691cf4ed59718381fb2f18070ec52be1f1022d855557"
    },
    {
      "constant": false,
      "inputs": [
        {
          "name": "_name",
          "type": "string"
        },
        {
          "name": "_price",
          "type": "uint256"
        }
      ],
      "name": "addItem",
      "outputs": [
        {
          "name": "",
          "type": "bool"
        }
      ],
      "payable": false,
      "stateMutability": "nonpayable",
      "type": "function",
      "signature": "0x62d6bbdf"
    },
    {
      "constant": false,
      "inputs": [
        {
          "name": "sku",
          "type": "uint256"
        }
      ],
      "name": "buyItem",
      "outputs": [],
      "payable": true,
      "stateMutability": "payable",
      "type": "function",
      "signature": "0xe7fb74c7"
    },
    {
      "constant": false,
      "inputs": [
        {
          "name": "sku",
          "type": "uint256"
        }
      ],
      "name": "shipItem",
      "outputs": [],
      "payable": false,
      "stateMutability": "nonpayable",
      "type": "function",
      "signature": "0xf61c899a"
    },
    {
      "constant": false,
      "inputs": [
        {
          "name": "sku",
          "type": "uint256"
        }
      ],
      "name": "receiveItem",
      "outputs": [],
      "payable": false,
      "stateMutability": "nonpayable",
      "type": "function",
      "signature": "0xa26be999"
    },
    {
      "constant": true,
      "inputs": [
        {
          "name": "_sku",
          "type": "uint256"
        }
      ],
      "name": "fetchItem",
      "outputs": [
        {
          "name": "name",
          "type": "string"
        },
        {
          "name": "sku",
          "type": "uint256"
        },
        {
          "name": "price",
          "type": "uint256"
        },
        {
          "name": "state",
          "type": "uint256"
        },
        {
          "name": "seller",
          "type": "address"
        },
        {
          "name": "buyer",
          "type": "address"
        }
      ],
      "payable": false,
      "stateMutability": "view",
      "type": "function",
      "signature": "0xad4b9cfb"
    }
  ],
  "bytecode": "0x608060405234801561001057600080fd5b50336000806101000a81548173ffffffffffffffffffffffffffffffffffffffff021916908373ffffffffffffffffffffffffffffffffffffffff1602179055506000600181905550610c47806100686000396000f3fe60806040526004361061006d576000357c0100000000000000000000000000000000000000000000000000000000900463ffffffff16806362d6bbdf14610072578063a26be9991461015c578063ad4b9cfb14610197578063e7fb74c7146102c6578063f61c899a146102f4575b600080fd5b34801561007e57600080fd5b506101426004803603604081101561009557600080fd5b81019080803590602001906401000000008111156100b257600080fd5b8201836020820111156100c457600080fd5b803590602001918460018302840111640100000000831117156100e657600080fd5b91908080601f016020809104026020016040519081016040528093929190818152602001838380828437600081840152601f19601f8201169050808301925050505050505091929192908035906020019092919050505061032f565b604051808215151515815260200191505060405180910390f35b34801561016857600080fd5b506101956004803603602081101561017f57600080fd5b81019080803590602001909291905050506104e8565b005b3480156101a357600080fd5b506101d0600480360360208110156101ba57600080fd5b8101908080359060200190929190505050610616565b60405180806020018781526020018681526020018581526020018473ffffffffffffffffffffffffffffffffffffffff1673ffffffffffffffffffffffffffffffffffffffff1681526020018373ffffffffffffffffffffffffffffffffffffffff1673ffffffffffffffffffffffffffffffffffffffff168152602001828103825288818151815260200191508051906020019080838360005b8381101561028657808201518184015260208101905061026b565b50505050905090810190601f1680156102b35780820380516001836020036101000a031916815260200191505b5097505050505050505060405180910390f35b6102f2600480360360208110156102dc57600080fd5b81019080803590602001909291905050506107c1565b005b34801561030057600080fd5b5061032d6004803603602081101561031757600080fd5b8101908080359060200190929190505050610a3f565b005b60007fa96ae0fc3224ebd79eebfe54bd130cc9cb94416cddd1f2386115e00b725324686001546040518082815260200191505060405180910390a160c06040519081016040528084815260200160015481526020018381526020016000600381111561039757fe5b81526020013373ffffffffffffffffffffffffffffffffffffffff168152602001600073ffffffffffffffffffffffffffffffffffffffff168152506002600060015481526020019081526020016000206000820151816000019080519060200190610404929190610b76565b50602082015181600101556040820151816002015560608201518160030160006101000a81548160ff0219169083600381111561043d57fe5b021790555060808201518160030160016101000a81548173ffffffffffffffffffffffffffffffffffffffff021916908373ffffffffffffffffffffffffffffffffffffffff16021790555060a08201518160040160006101000a81548173ffffffffffffffffffffffffffffffffffffffff021916908373ffffffffffffffffffffffffffffffffffffffff16021790555090505060018054016001819055506001905092915050565b80600260038111156104f657fe5b6002600083815260200190815260200160002060030160009054906101000a900460ff16600381111561052557fe5b14151561053157600080fd5b6002600083815260200190815260200160002060040160009054906101000a900473ffffffffffffffffffffffffffffffffffffffff168073ffffffffffffffffffffffffffffffffffffffff163373ffffffffffffffffffffffffffffffffffffffff161415156105a257600080fd5b60036002600085815260200190815260200160002060030160006101000a81548160ff021916908360038111156105d557fe5b02179055507fa8142743f8f70a4c26f3691cf4ed59718381fb2f18070ec52be1f1022d855557836040518082815260200191505060405180910390a1505050565b60606000806000806000600260008881526020019081526020016000206000018054600181600116156101000203166002900480601f0160208091040260200160405190810160405280929190818152602001828054600181600116156101000203166002900480156106ca5780601f1061069f576101008083540402835291602001916106ca565b820191906000526020600020905b8154815290600101906020018083116106ad57829003601f168201915b5050505050955060026000888152602001908152602001600020600101549450600260008881526020019081526020016000206002015493506002600088815260200190815260200160002060030160009054906101000a900460ff16600381111561073257fe5b92506002600088815260200190815260200160002060030160019054906101000a900473ffffffffffffffffffffffffffffffffffffffff1691506002600088815260200190815260200160002060040160009054906101000a900473ffffffffffffffffffffffffffffffffffffffff16905085858585858595509550955095509550955091939550919395565b80600060038111156107cf57fe5b6002600083815260200190815260200160002060030160009054906101000a900460ff1660038111156107fe57fe5b14151561080a57600080fd5b600260008381526020019081526020016000206002015480341015151561083057600080fd5b82336002600086815260200190815260200160002060040160006101000a81548173ffffffffffffffffffffffffffffffffffffffff021916908373ffffffffffffffffffffffffffffffffffffffff16021790555060016002600086815260200190815260200160002060030160006101000a81548160ff021916908360038111156108b957fe5b02179055506108fd6002600086815260200190815260200160002060030160019054906101000a900473ffffffffffffffffffffffffffffffffffffffff16610b6c565b73ffffffffffffffffffffffffffffffffffffffff166108fc60026000878152602001908152602001600020600201549081150290604051600060405180830381858888f19350505050158015610958573d6000803e3d6000fd5b507f92f64ca637d023f354075a4be751b169c1a8a9ccb6d33cdd0cb3520543995727846040518082815260200191505060405180910390a1600060026000838152602001908152602001600020600201549050600081340390506109f16002600085815260200190815260200160002060040160009054906101000a900473ffffffffffffffffffffffffffffffffffffffff16610b6c565b73ffffffffffffffffffffffffffffffffffffffff166108fc829081150290604051600060405180830381858888f19350505050158015610a36573d6000803e3d6000fd5b50505050505050565b8060016003811115610a4d57fe5b6002600083815260200190815260200160002060030160009054906101000a900460ff166003811115610a7c57fe5b141515610a8857600080fd5b6002600083815260200190815260200160002060030160019054906101000a900473ffffffffffffffffffffffffffffffffffffffff168073ffffffffffffffffffffffffffffffffffffffff163373ffffffffffffffffffffffffffffffffffffffff16141515610af957600080fd5b600280600085815260200190815260200160002060030160006101000a81548160ff02191690836003811115610b2b57fe5b02179055507ff00b9a5725b80c54016f42114f6ed7792d22eecb116011c4afac29c57bef6c95836040518082815260200191505060405180910390a1505050565b6000819050919050565b828054600181600116156101000203166002900490600052602060002090601f016020900481019282601f10610bb757805160ff1916838001178555610be5565b82800160010185558215610be5579182015b82811115610be4578251825591602001919060010190610bc9565b5b509050610bf29190610bf6565b5090565b610c1891905b80821115610c14576000816000905550600101610bfc565b5090565b9056fea165627a7a723058208ea5d7c12e49b5b0269ca93d1beb7f1a4bd8562b901cdb8fd9affd630d5b4d280029",
  "source": "pragma solidity ^0.5.0;\n\ncontract SupplyChain {\n\n  address owner;\n\n  uint skuCount;\n \n  mapping(uint => Item) items;\n\n  enum State {\n    ForSale,\n    Sold,\n    Shipped,\n    Received\n  }\n\n  struct Item {\n    string name;\n    uint sku;\n    uint price;\n    State state;\n    address seller;\n    address buyer;\n  }\n\n    event ForSale(uint sku); \n    event Sold(uint sku);\n    event Shipped(uint sku);\n    event Received(uint sku);\n\n\n    modifier isOwner () {\n      require(msg.sender == owner,\"User is not the owner\");\n      _;\n    }\n  \n    modifier verifyCaller (address _address) {\n      require (msg.sender == _address);\n      _;\n    }\n \n    modifier paidEnough(uint _price) {\n      require(msg.value >= _price);\n      _;\n    }\n\n    modifier checkValue(uint _sku) {\n      _;\n      uint _price = items[_sku].price;\n      uint amountToRefund = msg.value - _price;\n      payableConversion(items[_sku].buyer).transfer(amountToRefund);\n    }\n\n    modifier forSale(uint _sku) { \n        require(items[_sku].state == State.ForSale);\n         _;\n    }\n    modifier sold(uint _sku) { \n        require(items[_sku].state == State.Sold);\n        _;\n    }\n    modifier shipped(uint _sku) { \n        require(items[_sku].state == State.Shipped); \n        _;\n    }\n    modifier received(uint _sku) { \n        require(items[_sku].state == State.Received); \n        _;\n    }\n\n  constructor() public {\n    owner = msg.sender;\n    skuCount = 0;\n  }\n\n  function addItem(string memory _name, uint _price) public returns(bool){\n    emit ForSale(skuCount);\n    items[skuCount] = Item({name: _name, sku: skuCount, price: _price, state: State.ForSale, seller: msg.sender, buyer: address(0)});\n    skuCount = skuCount + 1;\n    return true;\n  }\n\n  function buyItem(uint sku)\n  public\n  payable\n  forSale(sku)\n  paidEnough(items[sku].price)\n  checkValue(sku)\n  {\n    items[sku].buyer = msg.sender;\n    items[sku].state = State.Sold;\n    payableConversion(items[sku].seller).transfer(items[sku].price);\n    emit Sold(sku);\n\n  }\n\n  function shipItem(uint sku)\n  public\n  sold(sku)\n  verifyCaller(items[sku].seller)\n  {\n    items[sku].state = State.Shipped;\n    emit Shipped(sku);\n  }\n\n  function receiveItem(uint sku)\n  public\n  shipped(sku)\n  verifyCaller(items[sku].buyer)\n  {\n    items[sku].state = State.Received;\n    emit Received(sku);\n  }\n\n  function payableConversion(address userAddress) internal pure returns (address payable) {\n    return address(uint160(userAddress));\n  }\n\n  function fetchItem(uint _sku) public view returns (string memory name, uint sku, uint price, uint state, address seller, address buyer) {\n    name = items[_sku].name;\n    sku = items[_sku].sku;\n    price = items[_sku].price;\n    state = uint(items[_sku].state);\n    seller = items[_sku].seller;\n    buyer = items[_sku].buyer;\n    return (name, sku, price, state, seller, buyer);\n  }\n\n}\n",
  "sourcePath": "/home/rafael/Projetos/solidityexperiments/supply-chain-reactionhashs/contracts/SupplyChain.sol",
  "compiler": {
    "name": "solc",
    "version": "0.5.0+commit.1d4f565a.Emscripten.clang"
  },
  "schemaVersion": "3.0.0",
  "updatedAt": "2019-01-21T18:15:25.968Z",
  "devdoc": {
    "methods": {}
  },
  "userdoc": {
    "methods": {}
  }
}